:100000000C942A040C943C040C943C040C94B50FFE
:100010000C94EE310C943C040C943C040C943C0481
:100020000C943C040C943C040C943C040C94B728B1
:100030000C943C040C943C040C943C040C943C0440
:100040000C94D02A0C943C040C94B6240C94782480
:100050000C943C040C943C040C943C040C943C0420
:100060000C943C040C943C0449072D0F2D0F5307AE
:1000700060076D077A072D0F7E072D0F8C072D0F58
:100080009607A007D1072D0F2D0F2D0FAA07B70731
:10009000C407F10D020E210E020E250E380E2B0E96
:1000A000310E4D0E530E620E790E9D0EA70EB30E3D
:1000B000BD0EA91FAC1FB11FB41FB71FBA1FBD1FB4
:1000C000C01FC31FC61FC91FD51FD51FD51FD51FD2
:1000D000D51FD51FD51FD51FCF1FCC1FD21F1C204A
:1000E0001F202220252028202B202E2031202127D0
:1000F00027272A272D2732273A274427B027B0273A
:10010000B0274C274F2758276127B027B027B027A3
:10011000B027B027B027692773277F2787278A272B
:1001200093279C27A227084AD73B3BCE016E84BC6D
:10013000BFFDC12F3D6C74319ABD56833DDA3D0041
:10014000C77F11BED9E4BB4C3E916BAAAABE00008A
:1001500000803F05A84CCDB2D44EB93836A9020C68
:1001600050B9918688083CA6AAAA2ABE0000008041
:100170003F003E0D0A002C4C696D3A002C52583A53
:10018000002C4275663A002C002C57506F733A00D1
:100190002C002C4D506F733A003C446F6F72003C42
:1001A000436865636B003C416C61726D003C486F55
:1001B0006D65003C486F6C64003C52756E003C49B4
:1001C000646C65005D0D0A005B302E396A5F47463E
:1001D000452E32303135313231383A000D0A003D8A
:1001E00000244E005D0D0A002053002046002054DC
:1001F00000204D3800204D3900204D3500204D3471
:1002000000204D3300204D3200204D3100204D3074
:100210000020473934002047393300204739310066
:10022000204739300020473230002047323100204B
:100230004731390020473138002047313700204707
:10024000004733382E00473830004733004732002C
:100250004731004730005B005D0D0A005B544C4F96
:100260003A005D0D0A002C005B4739323A005D0D03
:100270000A002C003A003330003238005B47005D42
:100280000D0A003A002C005B5052423A00290D0A38
:1002900000206D61782074726176656C2C206D6D24
:1002A0000020616363656C2C206D6D2F7365635E48
:1002B0003200206D617820726174652C206D6D2F85
:1002C0006D696E002C20737465702F6D6D007A005F
:1002D000790078002028003D0024002028686F6DF8
:1002E000696E672070756C6C2D6F66662C206D6D65
:1002F000290D0A002028686F6D696E6720646562A9
:100300006F756E63652C206D736563290D0A243249
:10031000373D002028686F6D696E67207365656BD7
:100320002C206D6D2F6D696E290D0A2432363D002B
:100330002028686F6D696E6720666565642C206D86
:100340006D2F6D696E290D0A2432353D00290D0A85
:100350002432343D002028686F6D696E672064691F
:100360007220696E76657274206D61736B3A00203D
:1003700028686F6D696E67206379636C652C2062F5
:100380006F6F6C290D0A2432333D0020286861729A
:1003900064206C696D6974732C20626F6F6C290D19
:1003A0000A2432323D002028736F6674206C696D18
:1003B0006974732C20626F6F6C290D0A2432313DF1
:1003C0000020287265706F727420696E63686573AF
:1003D0002C20626F6F6C290D0A2432303D002028DA
:1003E00061726320746F6C6572616E63652C206D41
:1003F0006D290D0A2431333D0020286A756E63741F
:10040000696F6E20646576696174696F6E2C206D0A
:100410006D290D0A2431323D00290D0A2431313D68
:10042000002028737461747573207265706F727424
:10043000206D61736B3A00202870726F62652070C6
:10044000696E20696E766572742C20626F6F6C29FC
:100450000D0A2431303D0020286C696D69742070CC
:10046000696E7320696E766572742C20626F6F6C92
:10047000290D0A24363D0020287374657020656EAE
:1004800061626C6520696E766572742C20626F6F94
:100490006C290D0A24353D00290D0A24343D002025
:1004A0002864697220706F727420696E7665727448
:1004B000206D61736B3A00290D0A24333D0020281A
:1004C0007374657020706F727420696E76657274D3
:1004D000206D61736B3A0020287374657020696425
:1004E0006C652064656C61792C206D736563290DE2
:1004F0000A24323D002028737465702070756C7377
:10050000652C2075736563290D0A24313D00243064
:100510003D002424202876696577204772626C208C
:1005200073657474696E6773290D0A242320287615
:10053000696577202320706172616D6574657273DF
:10054000290D0A2447202876696577207061727327
:100550006572207374617465290D0A244920287618
:10056000696577206275696C6420696E666F290D14
:100570000A244E2028766965772073746172747539
:100580007020626C6F636B73290D0A24783D76616D
:100590006C7565202873617665204772626C2073E4
:1005A000657474696E67290D0A244E783D6C696E16
:1005B000652028736176652073746172747570208C
:1005C000626C6F636B290D0A24432028636865639E
:1005D0006B2067636F6465206D6F6465290D0A2465
:1005E0005820286B696C6C20616C61726D206C6F97
:1005F000636B290D0A2448202872756E20686F6D80
:10060000696E67206379636C65290D0A7E20286313
:1006100079636C65207374617274290D0A21202836
:100620006665656420686F6C64290D0A3F20286345
:10063000757272656E7420737461747573290D0A16
:100640006374726C2D78202872657365742047720C
:10065000626C290D0A000D0A4772626C20302E3937
:100660006A5F474645205B27242720666F72206813
:10067000656C705D0D0A005D0D0A00526573746F44
:1006800072696E672064656661756C74730050678B
:100690006D20456E6400436865636B20446F6F7224
:1006A0000044697361626C656400456E61626C65EB
:1006B000640043617574696F6E3A20556E6C6F63A8
:1006C0006B656400272448277C2724582720746FF3
:1006D00020756E6C6F636B00526573657420746F68
:1006E00020636F6E74696E7565005B000D0A0048CB
:1006F0006F6D696E67206661696C0050726F62652C
:10070000206661696C0041626F7274206475726961
:100710006E67206379636C6500536F6674206C6943
:100720006D69740048617264206C696D6974004180
:100730004C41524D3A20000D0A00496E76616C69B9
:10074000642067636F64652049443A00556E6465B0
:1007500066696E6564206665656420726174650013
:10076000556E737570706F7274656420636F6D6D14
:10077000616E64004D6F64616C2067726F757020EC
:1007800076696F6C6174696F6E004C696E65206F7D
:10079000766572666C6F7700486F6D696E67206E64
:1007A0006F7420656E61626C656400416C61726D8E
:1007B000206C6F636B004E6F742069646C6500453C
:1007C0004550524F4D2072656164206661696C2E00
:1007D000205573696E672064656661756C7473007B
:1007E00056616C7565203C2033207573656300533A
:1007F000657474696E672064697361626C65640016
:1008000056616C7565203C203000496E76616C69DC
:10081000642073746174656D656E74004261642058
:100820006E756D62657220666F726D6174004578D9
:1008300070656374656420636F6D6D616E64206CB8
:100840006574746572006572726F723A20006F6B26
:100850000D0A000011241FBECFEFD8E0DEBFCDBFD0
:1008600026E0A0E0B1E001C01D92AD3CB207E1F787
:100870000E941F120C9447380C940000439808956E
:100880003B9A0C943E04823011F4439A08950C94E0
:100890003E04CF93DF931F92CDB7DEB79091A305AF
:1008A000923049F089830E94821F89810F90DF91E5
:1008B000CF910C9443040F90DF91CF910895F99953
:1008C000FECF92BD81BD81E08FBB80B50895F894C5
:1008D000F999FECF92BD81BD81E08FBB40B546271F
:1008E000842F992787FD9095262F30E0822393232C
:1008F000892B39F06F3F19F060BD84E006C084E1B8
:1009000004C0442321F060BD84E28FBBF99A78943F
:1009100008959F92AF92BF92CF92DF92EF92FF9293
:100920000F931F93CF93DF938C017A016B01C40E59
:10093000D51EEB01912C5C01A61AB70ACE018A0DD7
:100940009B1DCC15DD0591F0911009C0692D77270D
:1009500067FD7095272F221F2227221F01C021E04B
:100960006991922E960E0E946704E8CF692DC80106
:100970008E0D9F1DDF91CF911F910F91FF90EF90F2
:10098000DF90CF90BF90AF909F900C9467049F92A0
:10099000AF92BF92CF92DF92EF92FF920F931F938D
:1009A000CF93DF938B017A016C01C40ED51EEC014D
:1009B000912C5B01A81AB90AC5018C0F9D1FCC159B
:1009C000DD0591F00E945F04911009C0292D3327A5
:1009D00027FD3095232F221F2227221F01C021E04F
:1009E000922E980E8993E8CFC8018E0D9F1D0E940C
:1009F0005F0421E030E0981611F020E030E0C901FA
:100A0000DF91CF911F910F91FF90EF90DF90CF90EA
:100A1000BF90AF909F9008958FE3EAE2F5E0DF0189
:100A20001D928A95E9F76DE475E080E00E948126C9
:100A3000811103C087E00C94931F089565EA75E067
:100A400081E495E00C94DA332F923F924F925F92BB
:100A50006F927F928F929F92AF92BF92CF92DF92CE
:100A6000EF92FF920F931F93CF93DF93CDB7DEB733
:100A7000AB970FB6F894DEBF0FBECDBF98A38F8F94
:100A800089E3E9E6F5E0DF011D928A95E9F78AE05E
:100A9000EAE2F5E0AAE6B5E001900D928A95E1F769
:100AA0001D8E212C312CA12CB12C19A2512C1E8E63
:100AB00066246394712C08E0402E9924939485E079
:100AC000882E8D8DEF8DF8A1E80FF11D0081002398
:100AD00009F48AC29FEB900F9A3110F00C941F0F0B
:100AE0008F5F8D8FAE01475E5F4FBE01635E7F4FAC
:100AF0008F8D98A10E94DD16882311F40C94210F8C
:100B0000C98CDA8CEB8CFC8CC701B6010E94DA37F9
:100B10000E944235162F70E080E090E00E94703510
:100B20009B01AC01C701B6010E94F43320E030E024
:100B300048EC52E40E940C370E946F370E94423505
:100B4000073421F00D3409F450C192C1183209F470
:100B500032C1E8F4143160F4113108F0D7C0143018
:100B600009F45AC008F48EC01A30D9F10C942D0F34
:100B70001C31B9F128F4163108F4F7C00C942D0F8C
:100B80001E3179F1163209F47DC00C942D0F1D33FE
:100B900009F40BC1A8F4153309F461C040F41B3209
:100BA00009F4ECC0113309F4E9C00C942D0F1C3387
:100BB00010F00C942D0F16531093700589E000C1AE
:100BC0001C3540F41A3508F0B0C0103509F49BC04C
:100BD0000C942D0F1C3529F01F3508F4BDC00C9462
:100BE0002D0F6115710531F4BE8DB1110C94230FD9
:100BF000E1E0EE8F1C3199F038F4143069F01A30CE
:100C000009F0DBC082E02CC0153349F11C3559F1E5
:100C10001E3109F0D2C013C090926905CEC0611593
:100C2000710549F06A30710511F00C942D0F24E024
:100C30002093690509C0F3E0F093690505C06115CB
:100C4000710521F48092690580E0BFC06A307105AA
:100C500011F00C942D0F36E030936905F5CF87E045
:100C600080936905AAC06115710549F06A30710564
:100C700011F00C942D0F99E090936905E5CF409207
:100C80006905E2CFAE8DA1110C94230FB2E0BE8FA7
:100C9000123089F028F4112359F0113081F08FC0FF
:100CA000163281F0103579F1133009F088C007C091
:100CB00010926A0584C0EE8DE0936A0580C010939F
:100CC0006A057DC06E317105B1F048F4643171057B
:100CD00011F00C942D0FF4E0F0936A0512C0683205
:100CE000710561F06233710511F00C942D0F37E03E
:100CF00030936A0506C080926A0503C026E02093FF
:100D00006A0581E062C040926A0559C0123129F03B
:100D1000133139F010926E0502C090926E0582E098
:100D20004FC082E080936E054BC06115710549F498
:100D30001A3519F410926D0502C090926D0583E08A
:100D400044C06A30710511F00C942D0F1A3511F45E
:100D50000C942D0F84E039C01D3519F490926B0569
:100D600002C010926B0585E02BC0143119F49092EB
:100D70006C0502C010926C0586E022C08E8D811138
:100D80000C94230F113331F410926F0588E093E037
:100D90009E8F1BC06A30710511F00C942D0F90923C
:100DA0006F0588E0A3E0AE8F10C0672B11F00C94A4
:100DB0002D0F8AE00AC087E003C080E001C081E017
:100DC000672B19F087E10C94400FF30102C0EE0F7E
:100DD000FF1F8A95E2F7CF019F012A213B21232B98
:100DE00009F443C085E10C94400F672B59F7163086
:100DF00018F4133058F017C0183010F40C942D0F5D
:100E00001A3000F11E3159F00C942D0F123039F0C8
:100E10001E3129F0111120C0909271051DC082E091
:100E20008093710519C0143029F0153039F0909273
:100E3000730506C082E08093730502C010927305AB
:100E40008CE00BC0193021F082E08093720502C063
:100E5000109272058DE001C08BE0930102C0220F59
:100E6000331F8A95E2F7C901B8CFA82AB92A29CE3B
:100E7000802F992787FD9095A92FB92FFC01E65463
:100E8000F109E531F10508F0E8C7EC5CFF4F0C947F
:100E90002738C0927405D0927505E0927605F092DD
:100EA000770580E07FC0C0927805D0927905E09206
:100EB0007A05F0927B0539A1316039A381E072C0D7
:100EC000C0927C05D0927D05E0927E05F0927F0570
:100ED00089A1826089A382E065C0C0928005D0921A
:100EE0008105E0928205F092830599A1946099A30F
:100EF00083E058C01093840584E054C0C701B60154
:100F00000E943D3560938505709386058093870523
:100F10009093880585E046C0C0928905D0928A05E5
:100F2000E0928B05F0928C0586E03CC0C0928D0566
:100F3000D0928E05E0928F05F092900587E032C046
:100F4000C0929105D0929205E0929305F09294059B
:100F500088E028C0C0929605D0929705E092980547
:100F6000F0929905A52DA1605A2E8AE01BC0C0926F
:100F70009A05D0929B05E0929C05F0929D05B52DB7
:100F8000B2605B2E8BE00EC0C0929E05D0929F0592
:100F9000E092A005F092A105E52DE4605E2E8CE0C4
:100FA00001C089E08301082E02C0000F111F0A94BE
:100FB000E2F7980122213321232B09F046C721E6CD
:100FC00033E002C0359527958A95E2F720FF09C0E6
:100FD00020E030E0A901C701B6010E94CE3487FDB0
:100FE00036C7202A312A6DCD552029F03E8D31118A
:100FF00002C082E08E8F25FE0EC080918505909103
:101000008605A0918705B091880580389649A84942
:10101000B1050CF01EC780916B05813031F4FE8D57
:10102000F230A1F520FE1FC731C080912B05811140
:101030002DC020FE1BC080916C05813039F523E363
:1010400033E34BEC51E46091740570917505809128
:101050007605909177050E940C3760937405709324
:101060007505809376059093770510C080913805BB
:1010700090913905A0913A05B0913B058093740594
:1010800090937505A0937605B093770530FC10C05A
:101090008091340590913505A0913605B0913705C2
:1010A0008093910590939205A0939305B093940536
:1010B00080916905813031F426FC02C08CE1E0C6E4
:1010C000E89426F880916E05882341F0813061F024
:1010D00019A682E088A791E09FA30BC022E029A770
:1010E00031E038A71FA205C0A1E0A9A718A6B2E069
:1010F000BFA380916C05813021F0EE8DE33091F536
:101100002AC0B6E9EB2EB5E0FB2E00E010E0C52CBE
:10111000D12CC601002E02C0959587950A94E2F75E
:1011200080FF10C023E333E34BEC51E4D7016D9112
:101130007D918D919C910E940C37F70160837183A2
:10114000828393830F5F1F4FF4E0EF0EF11C033097
:101150001105F9F6D2CF80916F05813019F424E0A2
:10116000521279C68CE0EDE4F5E0DE011D960190A7
:101170000D928A95E1F7B1FC09C0309169053F8F66
:101180003230B9F0383009F4B0C015C18091700523
:10119000873010F08DE174C690913005981769F38F
:1011A000BE01635F7F4F0E948126882309F465C6D4
:1011B000E4CF511002C08AE163C6C101807599274E
:1011C000892B09F47BCF6091890570918A05809104
:1011D0008B0590918C050E94DA370E94423567306A
:1011E000C8F680918405843129F0823009F035C633
:1011F00027FC33C68FEA2822662319F061506F8FCF
:1012000003C0909170059F8FBE016F5F7F4F8F8DE0
:101210000E948126882309F430C64090840560909E
:101220006505709066058090670590906805DE0101
:1012300011967D01F6E9CF2EF5E0DF2EA1E4AA2E6E
:10124000A5E0BA2E00E010E0E52DF0E0FEA3EDA34E
:101250008DA19EA1002E02C0959587950A94E2F774
:1012600080FF33C0F4E14F1226C0D50158962D916E
:101270003D914D915C915B976D917D918D919C918C
:101280000E94F433F60120813181428153810E9412
:10129000F433D7016D937D938D939C931397023014
:1012A000A1F4A40193010E94F433F70160837183D8
:1012B000828393830AC0F60180819181A281B381E8
:1012C000F70180839183A283B3830F5F1F4FF4E004
:1012D000EF0EF11C24E0C20ED11C34E0A30EB11CB1
:1012E0000330110509F0B4CF0FC1552009F463CFC5
:1012F0006090650570906605809067059090680520
:1013000006E915E0E1E4CE2EE5E0DE2E5E018DE09B
:10131000A80EB11CE12CF12CA52DB0E0B8A3AF8F25
:101320008F8D98A10E2C02C0959587950A94E2F7AF
:1013300080FF26C0F5012081318142815381D60191
:101340006D917D918D919C910E94F433F8012081E3
:101350003181428153810E94F433D8016D937D9392
:101360008D939C931397B2E0EB1214C0A4019301E8
:101370000E94F433F80160837183828393830AC0EF
:10138000F601808D918DA28DB38DF80180839183BC
:10139000A283B383FFEFEF1AFF0A0C5F1F4F24E015
:1013A000C20ED11C34E0A30EB11C83E0E816F10498
:1013B00009F0B6CFA8C09E8D933059F4AF8DA530FB
:1013C00009F48FC0A73009F499C0A33009F09BC07D
:1013D00080C0552099F340906D05809065059090F0
:1013E0006605A0906705B090680571E4C72E75E0AA
:1013F000D72E06E915E03E01BDE06B0E711CE12C15
:10140000F12CE52DF0E0FEA3EDA38DA19EA10E2C05
:1014100002C0959587950A94E2F780FD0BC0F6010E
:1014200080819181A281B381F80180839183A2831D
:10143000B3833EC0FF8DF730D9F1411028C0D601EB
:1014400058962D913D914D915C915B97F301608190
:101450007181828193810E94F533D8012D913D9154
:101460004D915C910E94F533F80160837183828312
:101470009383F2E0EF121CC0A50194010E94F533A2
:10148000D8016D937D938D939C93139711C0F601B2
:101490002081318142815381D8016D917D918D915F
:1014A0009C910E94F533F80160837183828393835A
:1014B000FFEFEF1AFF0A24E0C20ED11C0C5F1F4F92
:1014C00034E0630E711C83E0E816F10409F09DCF4F
:1014D00075CF511001C01E8EBE016F5F7F4F86E039
:1014E00007C0511001C01E8EBE016F5F7F4F87E0A5
:1014F0000E948126882309F4C0C405C080916A0532
:10150000823008F0ACC41F8E10916A05183041F487
:10151000552009F4B3C19E8D913009F0A2C48BC24D
:10152000AE8DA23009F0AAC11123D9F020E030E03D
:10153000A90160917405709175058091760590916F
:1015400077050E94CE34882309F48DC4143028F422
:10155000123058F4113029F06EC2183008F44DC121
:101560006AC2511068C21E8E8CC1552009F423CE68
:10157000FFA1EF2FF0E0FEA3EDA338A5232F30E06D
:101580003BA72AA781E090E03C0108A402C0660CBA
:10159000771C0A94E2F70FA002C0880F991F0A94E3
:1015A000E2F7682A792A852D90E086219721892BF8
:1015B00009F45BC4CF01880F991F880F991FFC01A4
:1015C000E759FA4FDC01A65DBA4F57962D913D9130
:1015D0004D915C915A9765A576A587A590A90E9423
:1015E000F4336B017C018AA59BA5880F991F880F96
:1015F000991FFC01E759FA4FDC01A65DBA4F5796D7
:101600002D913D914D915C915A9765A576A587A541
:1016100090A90E94F4334B015C0127FE40C0E8947E
:1016200027F82091960530919705409198055091A3
:101630009905609141057091420580914305909113
:1016400044050E94CE34811120C120919A05309129
:101650009B0540919C0550919D05609145057091B9
:10166000460580914705909148050E94CE3481112E
:101670000CC120919E0530919F054091A00550918D
:10168000A1056091490570914A0580914B059091A3
:101690004C050E94CE348111F8C081E2F1C3F9A15A
:1016A0004F2E512C64207520672809F4E0C321EFE8
:1016B000222280916C05813009F45AC00AA51BA52D
:1016C000000F111F000F111F03591A4FD8011B964D
:1016D0002D913D914D915C911E97C501B4010E94E1
:1016E000F4332B013C01ADA0BEA0AA0CBB1CAA0C7C
:1016F000BB1CF501E359FA4F5F012385348545850D
:101700005685C701B6010E94F433A30192010E94DD
:101710009A176B017C01D8011B962D913D914D913B
:101720005C911E97F50163857485858596850E9479
:101730009A174B015C0160938D0570938E05809321
:101740008F05909390059B01AC01C701B6010E94E3
:10175000F4336B017C01E894F7F82AE037ED43EAB3
:101760005BE3C701B6010E94D13618164CF163C184
:1017700088E7682E85E0782E00E010E0C201002E98
:1017800002C0959587950A94E2F780FF10C023E385
:1017900033E34BEC51E4D3016D917D918D919C919C
:1017A0000E940C37F30160837183828393830F5F00
:1017B0001F4FF4E06F0E711C03301105F9F67ECF58
:1017C00020E030E040E05FE3C701B6010E94D1367F
:1017D00018160CF462CF2FE632E143E85AE3C50154
:1017E000B4010E940C379B01AC01C701B6010E94F5
:1017F000D13618160CF451CF1EC1552009F4DBCC9C
:101800002091960530919705409198055091990542
:101810006091410570914205809143059091440586
:101820000E94CE34811107C120919A0530919B0509
:1018300040919C0550919D0560914505709146052C
:1018400080914705909148050E94CE348111F3C0E4
:1018500020919E0530919F054091A0055091A105D2
:101860006091490570914A0580914B0590914C0516
:101870000E94CE34882309F410CFDDC02E8D2111B3
:10188000DAC0C1018E7D9C7FD9C080916C0581300A
:10189000B1F423E333E34BEC51E460918D05709197
:1018A0008E0580918F05909190050E940C37609372
:1018B0008D0570938E0580938F05909390054090D1
:1018C0008D0550908E0560908F057090900520E0FA
:1018D00030E040E850E4C301B2010E940C37A3019C
:1018E00092010E940C372B013C01A7019601C70110
:1018F000B6010E940C379B01AC01C301B2010E94EA
:10190000F4332B013C01A5019401C501B4010E94EF
:101910000C379B01AC01C301B2010E94F4332B01CF
:101920003C0120E030E0A9010E94CE3487FDA7C22F
:10193000C301B2010E9499372B013C01A50194011A
:10194000C701B6010E949A179B01AC01C301B20105
:1019500090580E94D5342B013C0180916A05833058
:1019600021F477FA709477F8709480918D059091B6
:101970008E05A0918F05B091900589A39AA3ABA382
:10198000BCA320E030E0A901BC01CD010E94CE340F
:1019900087FF11C077FA709477F8709489A19AA1A3
:1019A000ABA1BCA1B05880938D0590938E05A093F8
:1019B0008F05B09390050DA11EA1000F111F000F00
:1019C000111F03591A4FA3019201C501B4010E94CE
:1019D0000C379B01AC01C701B6010E94F43320E033
:1019E00030E040E05FE30E940C37D8011B966D9316
:1019F0007D938D939C931E970AA51BA5000F111F25
:101A0000000F111F03591A4FA3019201C701B6011C
:101A10000E940C379B01AC01C501B4010E94F53353
:101A200020E030E040E05FE30E940C37F80163877C
:101A3000748785879687C1018E7D907E892B09F0FA
:101A400018C28091850590918605A0918705B09177
:101A5000880580933D0590933E05A0933F05B09384
:101A6000400580916B0580932B05809174059091C2
:101A70007505A0917605B091770580933805909310
:101A80003905A0933A05B0933B05C0909105D090DD
:101A90009205E0909305F0909405A701960160915E
:101AA00034057091350580913605909137050E9477
:101AB000CE348823C1F080913305882321F0B7010B
:101AC000A6010E9444288091910590919205A091D1
:101AD0009305B09194058093340590933505A093B8
:101AE0003605B09337058091950580933C0580912C
:101AF000730590913305981771F04091340550911A
:101B0000350560913605709137050E944428809113
:101B10007305809333058091720590913205981773
:101B200031F00E94490480917205809332058091C2
:101B30006905813051F46091890570918A05809121
:101B40008B0590918C050E94A51580916E05809360
:101B50002E0580916C0580932C053E8D3330F9F471
:101B600080916F0580932F05813089F480919E05C7
:101B700090919F05A091A005B091A1058093650566
:101B800090936605A0936705B093680508C010920E
:101B900065051092660510926705109268058091A0
:101BA000700590913005981759F0809330058CE0BE
:101BB000FE013D96ADE4B5E001900D928A95E1F706
:101BC00080916D0580932D058091690590E0FC0161
:101BD0003297E830F10508F04BC0E75BFF4F0C94FB
:101BE0002738BE016F5F7F4F8F8D0E94292580911E
:101BF00030059F8D89133CC08CE0FE013196ADE429
:101C0000B5E01AC0AE8DAA2349F020E040E050E0D4
:101C100060E87FEB86E995E00E94581220E040E002
:101C200050E060E87FEBCE0101960E9458128CE0F4
:101C3000FE013196A1E4B5E001900D928A95E1F79D
:101C400017C061E475E086E003C061E475E087E0F9
:101C50000E9429250DC08CE0E6E9F5E0A9E5B5E094
:101C6000EBCF8CE0E9E5F5E0DF011D928A95E9F71D
:101C700080916A0580932A05883009F498C0BE8D4A
:101C8000B23009F094C090E08830910508F086C029
:101C9000FC01EF5AFF4F0C94273820E040E050E061
:101CA00060E87FEB0AC0409138055091390560919A
:101CB0003A0570913B0520912B0586E995E00E943D
:101CC00058126CC0C0903805D0903905E0903A05A4
:101CD000F0903B0500918D0510918E0520918F05A8
:101CE0003091900581E08F93E9A5EF93F8A5FF93DC
:101CF00015C0C0903805D0903905E0903A05F090B5
:101D00003B0500918D0510918E0520918F05309136
:101D100090051F9289A58F9398A59F938FA0A0905F
:101D20002B0548E755E066E975E081E495E00E94FF
:101D3000A6120F900F900F9031C04091380550912E
:101D4000390560913A0570913B05E12C0AC040913C
:101D500038055091390560913A0570913B05EE24A4
:101D6000E39400E015C04091380550913905609129
:101D70003A0570913B05E12C0AC04091380550911D
:101D8000390560913A0570913B05EE24E39401E03A
:101D900020912B0586E995E00E9414168CE0E6E977
:101DA000F5E0A1E4B5E001900D928A95E1F780910C
:101DB000710580933105882309F45DC00E94821F5C
:101DC000909131058091A305913069F48230A1F1A1
:101DD0009FB7F894809101018860809301019FBFB3
:101DE0000E94D51D29C091E090932A0510922E05DE
:101DF00010922D0510922B0510923005109233058C
:101E0000109232058230A9F0BE01635F7F4F80E0FF
:101E10000E948126882389F18CE0FE013D96ADE485
:101E2000B5E001900D928A95E1F70E94E7270E94A4
:101E30003E0487E00E940B20109231051CC081E017
:101E40001FC082E01DC088E11BC089E119C084E089
:101E500017C08BE115C085E213C084E111C08EE18B
:101E60000FC08FE10DC086E10BC080E209C083E2A4
:101E700007C084E205C080E003C087E001C082E2C1
:101E8000AB960FB6F894DEBF0FBECDBFDF91CF91FA
:101E90001F910F91FF90EF90DF90CF90BF90AF9088
:101EA0009F908F907F906F905F904F903F902F907A
:101EB0000895EBE6F0E08081897E8083E8E6F0E03B
:101EC00080818E7F8083089584B1897E84B985B1B5
:101ED000866185B98091BD0683FF0BC080916B0040
:101EE000866180936B0080916800816080936800B8
:101EF00008950C94590FCF92DF92FF920F931F9386
:101F0000CF93DF931F92CDB7DEB793B196718091D7
:101F1000BD0686FD02C086E198279923D9F0C12C21
:101F2000D12CF12C01E010E08C2D99830E94DD274B
:101F30009981892339F098010C2C01C0220F0A9451
:101F4000EAF7F22A8FEFC81AD80AE3E0CE16D104D6
:101F500059F701C0F12C8F2D0F90DF91CF911F9178
:101F60000F91FF90DF90CF9008951F920F920FB6C0
:101F70000F9211242F933F934F935F936F937F930F
:101F80008F939F93AF93BF93EF93FF938091A3059C
:101F9000813071F08091000181110AC00E94B21657
:101FA0009FB7F894809100018360809300019FBFE8
:101FB000FF91EF91BF91AF919F918F917F916F9121
:101FC0005F914F913F912F910F900FBE0F901F90F7
:101FD00018952F923F924F925F926F927F928F92BD
:101FE0009F92AF92BF92CF92DF92EF92FF920F93A8
:101FF0001F93CF93DF93CDB7DEB767970FB6F894F3
:10200000DEBF0FBECDBF582E8091A2058111A1C1A8
:1020100024EAA22E26E0B22E9E01235F3F4F190133
:1020200000E010E0C12CD12C7601652C712C802FA2
:102030000E94C927D1018D931D01C301002E02C04A
:10204000959587950A94E2F780FF1AC020E030E06A
:1020500040EC5FEBF50160817181828193810E9488
:102060000C37688B472E4C01262F372FAC01C70148
:10207000B6010E94D13618161CF0C888D42C740101
:102080000F5F1F4FF4E0AF0EB11C0330110579F65E
:102090008090C3069090C406A090C506B090C60676
:1020A00024E0288B01E065EA75E0CE0101960E94EC
:1020B000DA332090BE06312CFE01319685EA95E098
:1020C0009F8B8E8B80E090E0412C10E0B701A60141
:1020D00070589301082E02C0359527950A94E2F7AF
:1020E00020FF28C04394AE89BF891D921D921D9286
:1020F0001C9213979101082E02C0359527950A94DA
:10210000E2F720FF03C0002319F007C0002329F0E5
:10211000C082D182E282F38204C040835183628311
:1021200073832DE030E02C0F3D1F280F391FD9019C
:102130002C91122B019634962E893F892C5F3F4FAC
:102140003F8B2E8B8330910521F6642D70E080E06B
:1021500090E00E946E350E9499379B01AC01C50149
:10216000B4010E940C37AB01BC011093BE054A8B31
:102170005B8B6C8B7D8B0E942B1C20E04A895B89DA
:102180006C897D89CE0101960E9432190E94922BA2
:102190000E946C280023E9F00E947B0FFE013D960F
:1021A00020E030E090E06191462F412359F0AC01EE
:1021B000022E02C0559547950A94E2F740FF02C0EF
:1021C000609516232F5F3F4F2330310561F7109341
:1021D000BE050E94922B809101018473C1F0809111
:1021E0000101807329F00E94B2160E94D51DB1C072
:1021F0000111AAC00E947B0F8521A9F79FB7F8940F
:10220000809101018B7F809301019FBF04C0812FCA
:102210008C7109F0BFCF0E94222B0E94DB188091A5
:10222000C7069091C8060E948F1731E00327C9F0B6
:1022300020E030E040EA50E46091C9067091CA069F
:102240008091CB069091CC060E940C376B017C01EB
:102250008090BF069090C006A090C106B090C206C4
:1022600010C0C090C906D090CA06E090CB06F0908E
:10227000CC068090C3069090C406A090C506B0908E
:10228000C60688898150888B81110DCF8091BE064A
:10229000A82FB0E0B98BA88BC090C906D090CA0611
:1022A000E090CB06F090CC061601270157FA509427
:1022B00057F8509480E8A82E86E0B82E95EA892E2B
:1022C00095E0992E00E010E0C301002E02C0959524
:1022D00087950A94E2F780FF29C088899989002EA2
:1022E00002C0959587950A94E2F7F50180FF0EC02C
:1022F00024A135A146A157A1C701B6010E94F5331B
:10230000D5012D913D914D915C9106C02081318187
:1023100042815381C201B1010E940C370E94DC3618
:10232000D4016D937D938D939C9313970F5F1F4FF3
:10233000B4E08B0E911CE4E0AE0EB11C033011052D
:1023400019F60E942B1C05C08091010182FF56CF17
:102350004ACF67960FB6F894DEBF0FBECDBFDF91B0
:10236000CF911F910F91FF90EF90DF90CF90BF9092
:10237000AF909F908F907F906F905F904F903F9025
:102380002F900895CF92DF92EF92FF920F931F93B9
:10239000CF93DF938C01C4EAD6E0F801C190D190CD
:1023A000E190F1908F0120E030E0A901C701B60172
:1023B0000E94D136181654F02991399149915991BA
:1023C000C701B6010E94CE3487FF2BC08091A305C0
:1023D0008830A1F00E94B2169FB7F8948091000156
:1023E0008560809300019FBFDF91CF911F910F9176
:1023F000FF90EF90DF90CF900C94D51D9FB7F8948D
:10240000809101018860809301019FBF0E94D51DCA
:102410008091A20581110AC08091A3058111F6CF98
:10242000D9CFF6E0C03BDF0709F0B7CFDF91CF91FE
:102430001F910F91FF90EF90DF90CF9008950E9431
:1024400046240E94BC270E944E2B0E94DD318DE164
:10245000E2EAF5E0DF011D928A95E9F781E08093D9
:10246000A20578948091BD0684FF03C081E080932B
:10247000A3050E9414250E940C050E94ED270E94CE
:1024800040040E94640F0E94A11D0E94DB180E945C
:10249000222B0E942B1C0E941E051092A205109256
:1024A0000101109200011092A4050E94001FE1CFCB
:1024B000EF92FF921F93CF93DF9300D000D0CDB760
:1024C000DEB77C01122F8091BD0685FF0BC0C701CE
:1024D00049835A836B837C830E94C2117C816B8108
:1024E0005A8149818091A305823031F149835A8311
:1024F0006B837C830E94D51D8091A20581111CC035
:102500000E942A1949815A816B817C81882339F084
:102510000E94F71E49815A816B817C81E7CF212F70
:10252000C7010F900F900F900F90DF91CF911F91E7
:10253000FF90EF900C9432190F900F900F900F9026
:10254000DF91CF911F91FF90EF9008952F923F92CE
:102550004F925F926F927F928F929F92AF92BF92B3
:10256000CF92DF92EF92FF920F931F93CF93DF935F
:10257000CDB7DEB7E7970FB6F894DEBF0FBECDBF7D
:102580009C8B8B8B1B013A0109871A872B873C8711
:10259000AF8A2D961FAD2D972E962FAD2E97298B96
:1025A0002F963FAD2F973D8B84E0889EA00111248C
:1025B0005A834983AB89BC89A40FB51FB98FA88FF3
:1025C000460D571D5B8F4A8FFA0180809180A28053
:1025D000B3802D913D914D915C91C501B4010E9454
:1025E000F5336C8F7D8F8E8F9F8FF4E01F9F80015E
:1025F00011242B893C89200F311F39A328A3A30163
:10260000400F511F5BA34AA3DA014D905D906D907E
:102610007C90F9012081318142815381C301B20153
:102620000E94F5336CA37DA38EA39FA3A501940103
:1026300050582D873E874F87588BD301C201B05821
:102640008D839E83AF83B887E981FA81E20DF31D04
:102650002C8D3D8D4E8D5F8D608171818281938146
:102660000E94F4332B013C01F101E00FF11F2CA17A
:102670003DA14EA15FA160817181828193810E9401
:10268000F4334B015C01A30192016D857E858F853A
:1026900098890E940C3769837A838B839C83A50178
:1026A00094016D817E818F8198850E940C379B01FA
:1026B000AC0169817A818B819C810E94F5336983A9
:1026C0007A838B839C83A50194016D857E858F859C
:1026D00098890E940C374B015C01A30192016D8126
:1026E0007E818F8198850E940C379B01AC01C501CA
:1026F000B4010E94F43329813A814B815C810E94AC
:1027000068342B013C019D89992399F02DEB37E327
:1027100046E055EBC301B2010E94D13687FD1DC0D2
:102720002BED3FE049EC50E4C301B2010E94F433C9
:1027300012C02DEB37E346E055E3C301B2010E941E
:10274000CE34181654F02BED3FE049EC50E4C301B1
:10275000B2010E94F5332B013C018090B9069090A4
:10276000BA06A090BB06B090BC0629853A854B8579
:102770005C85CA01B9010E94F533A50194010E944C
:10278000F4339B01AC01C501B4010E940C370E94D7
:1027900099374B015C0120E030E040E05FE3C3018A
:1027A000B2010E940C3729853A854B855C850E94D1
:1027B0000C379F77A50194010E94D5340E94AB3558
:1027C0000E9442357E8B6D8BDB01AB2B09F486C1F9
:1027D0004B01A12CB12CBF89BB2361F0C501B40111
:1027E0000E946E359B01AC01C701B6010E940C37F7
:1027F0006B017C01C501B4010E946E354B015C0187
:102800009B01AC01C301B2010E94D53469877A876C
:102810008B879C87F989E4E0FE9FC00111242B89F6
:102820003C89280F391F3A8B298BF101E80FF91FDA
:10283000D9012D913D914D915C9160817181828191
:1028400093810E94F433A50194010E94D5346CABAE
:102850007DAB8EAB9FAB29853A854B855C85CA01E4
:10286000B9010E940C379B01AC0160E070E080E090
:1028700090E40E94F4334B015C012BEA3AEA4AE20D
:102880005EE369857A858B859C850E940C372B01D8
:102890003C0120E030E040E850E4C501B4010E9472
:1028A000F5339B01AC01C301B2010E940C3768A74C
:1028B00079A78AA79BA720E030E040E05FE3C5014D
:1028C000B4010E940C376CA77DA78EA79FA7198221
:1028D00001E010E0ED89FE890E171F0709F4FEC024
:1028E000B981BC3008F04AC02CA53DA54EA55FA516
:1028F0006D817E818F8198850E940C374B015C0130
:1029000028A539A54AA55BA56D857E858F85988903
:102910000E940C37A50194010E94F533B62EA72E14
:10292000982E892E2CA53DA54EA55FA56D857E858B
:102930008F8598890E940C372B013C0128A539A569
:102940004AA55BA56D817E818F8198850E940C3799
:102950009B01AC01C301B2010E94F4336D877E87F5
:102960008F87988BE981EF5FE9838B2D9A2DA92DB5
:10297000B82D8D839E83AF83B8876EC0B80180E089
:1029800090E00E946E3529853A854B855C850E94D2
:102990000C374B015C010E94D2346D837E838F83A0
:1029A0009887C501B4010E948F374B015C01EA8D05
:1029B000FB8D80819181A281B3819C01AD01505832
:1029C00029833A834B835C83AAA1BBA18D919D91FE
:1029D0000D90BC91A02D88AB99ABAAABBBAB2D8160
:1029E0003E814F81588569817A818B819C810E94CB
:1029F0000C372B013C01A501940168A979A98AA98A
:102A00009BA90E940C379B01AC01C301B2010E943B
:102A1000F5336D877E878F87988BA5019401698137
:102A20007A818B819C810E940C374B015C012D8146
:102A30003E814F81588568A979A98AA99BA90E94DE
:102A40000C379B01AC01C501B4010E94F4336D83C6
:102A50007E838F83988719822D853E854F8558897F
:102A60006C8D7D8D8E8D9F8D0E94F533E88DF98D57
:102A700060837183828393832D813E814F8158854A
:102A80006CA17DA18EA19FA10E94F533A8A1B9A13F
:102A90006D937D938D939C9313972CA93DA94EA97B
:102AA0005FA9E989FA8960817181828193810E949D
:102AB000F533A989BA896D937D938D939C93139770
:102AC0002F89B701A6018B899C890E945812809199
:102AD000A205811121C00F5F1F4FFCCE2F89B701C6
:102AE000A601C101E7960FB6F894DEBF0FBECDBFB9
:102AF000DF91CF911F910F91FF90EF90DF90CF90DA
:102B0000BF90AF909F908F907F906F905F904F900D
:102B10003F902F900C945812E7960FB6F894DEBFB2
:102B20000FBECDBFDF91CF911F910F91FF90EF901E
:102B3000DF90CF90BF90AF909F908F907F906F90DD
:102B40005F904F903F902F9008958F929F92AF92F9
:102B5000BF92CF92DF92EF92FF924B015C01809186
:102B6000A305823009F447C020E030E040EA51E498
:102B7000C501B4010E940C370E94AB350E9442355A
:102B80006B017C010E94821F20E030E04AE754E4A0
:102B9000C501B4010E940C374B015C0182E38C9D9E
:102BA000B0018D9D700D112480E090E00E946E3583
:102BB0009B01AC01C501B4010E94F4330E94AB3506
:102BC0000E944235CB010E948F17C114D10499F0A5
:102BD0000E94D51D21E0C21AD1088091A205811161
:102BE0000AC08FEF90E722E0815090402040E1F74B
:102BF00000C00000EACFFF90EF90DF90CF90BF9031
:102C0000AF909F908F9008950E94590F83E00E948B
:102C1000E90F0E94D51D8091A205811104C00E9478
:102C20001E050C94640F0895CF92DF92EF920F93DC
:102C3000CF93DF9300D000D01F92CDB7DEB76C01E9
:102C40008091A305823009F481C02D8349835A8382
:102C50006B837C830E94821F1092BD05802F0E948F
:102C6000A41D0E94B61D2D8149815A816B817C81F2
:102C70008823A1F09FB7F894809100018061809330
:102C800000019FBF2D8349835A836B837C830E94FD
:102C9000D51D7C816B815A8149812D818091A2054E
:102CA000811154C0C6010E94581281E08093020134
:102CB0009FB7F894809101018260809301019FBFCA
:102CC0000E94D51D8091A205811140C08091A3056D
:102CD0008111F6CF809102018130A9F4EE2051F0EC
:102CE0008CE0E5EAF5E0A1EBB5E001900D928A9564
:102CF000E1F70CC09FB7F894809100018061809348
:102D000000019FBF03C081E08093BD0510920201C6
:102D10000E94D51D8091A205811118C00E94222B0E
:102D20000E94DB180E942B1C65EA75E0C6010E9418
:102D3000DA330F900F900F900F900F90DF91CF919B
:102D40000F91EF90DF90CF900C94A3210F900F90F4
:102D50000F900F900F90DF91CF910F91EF90DF9038
:102D6000CF9008958091010184FD26C09FB7F8940B
:102D7000809101018061809301019FBF0E94E7273C
:102D80000E943E048091A305982F9C7021F490919D
:102D9000A405913089F49FB7843029F4F894809188
:102DA0000001806204C0F8948091000188608093E3
:102DB00000019FBF0C948C2808956F927F928F9290
:102DC0009F92AF92BF92CF92DF92EF92FF920F93BA
:102DD0001F93CF93DF937C018B016A01FB018081FC
:102DE000F701E80FF11D2081EF012D3229F4229621
:102DF00021816624639407C02B3211F0219602C012
:102E000022962181612CA12CB12C712C60E070E004
:102E1000CB01FE0130ED932E920E29E02915C8F06A
:102E2000B39428E02B1588F0A1107A94A5E0B0E0C7
:102E30009B01AC010E942D38660F771F881F991FD8
:102E4000690D711D811D911D0BC0A11009C07394E6
:102E500007C02EEF921207C0A11005C0AA24A394A8
:102E600021962081D6CFBB2009F449C00E946E353F
:102E70004B015C0120E030E0A9010E94CE348823A0
:102E800061F18FEF78166CF42AE037ED43E25CE3F2
:102E9000C501B4010E940C374B015C01739473941B
:102EA000F0CF78120BC02DEC3CEC4CEC5DE3C5018F
:102EB000B4010E940C374B015C010FC0772069F010
:102EC00020E030E040E251E4C501B4010E940C373B
:102ED0004B015C017A9417149CF3662021F0B7FA39
:102EE000B094B7F8B094F60180829182A282B38246
:102EF000CE19DF09C150F801C08381E001C080E034
:102F0000DF91CF911F910F91FF90EF90DF90CF90C5
:102F1000BF90AF909F908F907F906F900895009793
:102F200041F0EFE9FFE03197F1F700C000000197B1
:102F3000F6CF08958F929F92AF92BF92CF92DF9279
:102F4000EF92FF9269017A019B01AC010E940C375C
:102F50004B015C01A7019601C701B6010E940C3725
:102F60009B01AC01C501B4010E94F533FF90EF90C5
:102F7000DF90CF90BF90AF909F908F900C94993737
:102F80004F925F926F927F928F929F92AF92BF9279
:102F9000CF92DF92EF92FF920F931F93CF93DF9325
:102FA00010912101111101C012E1115000911F0176
:102FB000101709F4EFC089E2189FE0011124CD5DDC
:102FC000DE4F8D889E88AF88B88C69A17AA18BA1CD
:102FD0009CA19B01AC010E94F5332DA13EA14FA104
:102FE00058A50E940C376B017C019B01AC01B40118
:102FF000C5010E94CE3487FF02C064017501A6019D
:10300000B701498B5A8B6B8B7C8B111101C012E17C
:1030100077247A94710E701619F029E2622E27C077
:1030200080912201081351C00E94702B4EC0679CF2
:10303000800111240D5D1E4F711002C092E1792EA6
:103040007A9480912201781202C00E94702BF801BC
:10305000C588D688E788F08CA701960161897289B6
:10306000838994890E94CE34811106C0E801809141
:103070001F017812DCCF29C0F80161A172A183A1E0
:1030800094A19B01AC010E94F533F80125A136A162
:1030900047A150A50E940C3729893A894B895C8940
:1030A0000E94F5334B015C01A70196010E94CE34CA
:1030B000F80187FF05C0818A928AA38AB48AD6CF95
:1030C000C18AD28AE38AF48AD1CF60901F01F9E2E3
:1030D0006F9E800111240D5D1E4F77247394760C32
:1030E00082E1781201C0712C5090210189E2482EB2
:1030F000751409F44DC0479CE0011124CD5DDE4FED
:10310000F80181889288A388B488C988DA88EB8816
:10311000FC88A7019601C501B4010E94CE3487FF47
:1031200023C0F80161A172A183A194A19B01AC010C
:103130000E94F533F80125A136A147A150A50E94B0
:103140000C379B01AC01C501B4010E94F5334B0162
:103150005C01A70196010E94CE3487FF05C0898AD1
:103160009A8AAB8ABC8A672C2D893E894F89588DF3
:1031700069897A898B899C890E94CE34811101C02A
:10318000672C7394F2E17F1201C0712C8E01B0CFD5
:1031900060921F01DF91CF911F910F91FF90EF90EF
:1031A000DF90CF90BF90AF909F908F907F906F9067
:1031B0005F904F9008958CE1E3E0F1E0DF011D9214
:1031C0008A95E9F7109222011092210181E0809303
:1031D000200110921F0108959091220180912101F8
:1031E000891769F081E0890F823109F480E020912C
:1031F0001F01921302C080931F0180932201089542
:103200008091220190912101981739F029E2829F43
:10321000C00111248D5D9E4F089580E090E00895D7
:10322000E0912201EF5FE23109F4E0E080912101B9
:10323000E81761F089E2E89FF0011124ED5DFE4F8F
:1032400061897289838994890C94993760E070E070
:10325000CB01089581E02091220190912001291352
:1032600080E008952F923F924F925F926F927F92EB
:103270008F929F92AF92BF92CF92DF92EF92FF9286
:103280000F931F93CF93DF93CDB7DEB7AD970FB6F4
:10329000F894DEBF0FBECDBF142F052F6B8F7C8F30
:1032A000822E2091210139E2239F10011124F10186
:1032B000ED5DFE4F1F01158616861786108A15A232
:1032C00016A217A210A6108249E956E766E97EE722
:1032D00041A352A363A374A35C0140E8E42E46E03B
:1032E000F42E9E01235F3F4F38A32F8F83E091E0A0
:1032F0009E8F8D8F6F01FE013196FAA3E9A3912C69
:10330000F50161917191819191915F01F7012081A6
:103310003181428153810E940C370E94DC36EF8D4F
:10332000F8A16193719381939193F8A3EF8FED8D41
:10333000FE8D4190519061907190FE8FED8F6419D8
:103340007509860997092B013C0197FF07C04424A2
:1033500055243201461A570A680A790AF601418251
:10336000528263827482F1012585368547855089B2
:10337000421653066406750610F429013A01F1015C
:10338000458656866786708A0E947035F7012081CF
:103390003181428153810E94D5342B013C01E9A146
:1033A000FAA16193719381939193FAA3E9A320E029
:1033B00030E0A9010E94CE3487FF0AC0F10190815C
:1033C000892D9DA70E94D3279DA5892BF10180837C
:1033D000A3019201C301B2010E940C37F10125A1A2
:1033E00036A147A150A50E94F533F10165A376A34C
:1033F00087A390A79394F4E0EF0EF11C24E0C20E93
:10340000D11C33E093127CCF0E9499376B017C0171
:10341000F10165A376A387A390A785859685A785E7
:10342000B089892B8A2B8B2B09F4FCC120E030E07A
:10343000A901612F702F8B8D9C8D0E94CE3487FD4A
:1034400021C0882061F0A7019601612F702F8B8D1C
:103450009C8D0E940C37162F072F8B8F9C8F20E09E
:1034600030E040E85FE3612F702F8B8D9C8D0E94D0
:10347000CE3487FF0DC010E000E030E83B8F8FE3D3
:103480008C8F06C019E906E7F6E9FB8F2EE72C8F33
:10349000A701960160E070E080E89FE30E94D534C8
:1034A00069A77AA78BA79CA7EFE0F1E0FAA3E9A3AD
:1034B0002CE836E038A32F8FCE010D969A8F898F96
:1034C000FE013196FE8FED8FC12CD12C7601ED8D52
:1034D000FE8D80809180A280B38020E030E0A90141
:1034E000C501B4010E94CE34882309F47FC029A508
:1034F0003AA54BA55CA5C501B4010E940C374B0150
:103500005C01ED8DFE8D60837183828393839B01CB
:10351000AC0160E070E080E89FE30E94D5342B01AD
:103520003C01E89477F8EF8DF8A120813181428148
:103530005381C301B2010E940C376BA37CA38DA3FE
:103540009EA39B01AC01612F702F8B8D9C8D0E94DF
:10355000CE3487FF06C01BA30CA3FB8DFDA32C8DCF
:103560002EA3F101F1A1FB8FF101F2A1FC8FF1017A
:10357000F3A1FFA3F101F4A1F8A7EF8DF8A1248531
:10358000358546855785C301B2010E940C373B0142
:103590008C019B01AC016B8D7C8D8FA198A50E9445
:1035A000CE3487FF04C06B8C7C8C0FA118A5C3019F
:1035B000D801F10181A392A3A3A3B4A3E9A1FAA125
:1035C0002081318142815381C501B4010E940C37B1
:1035D0009B01AC01C701B6010E94F4336B017C0171
:1035E0001BA10CA1FDA1FB8F2EA12C8F8D8D9E8D7B
:1035F00004969E8F8D8FE9A1FAA13496FAA3E9A3D0
:103600002F8D38A12C5F3F4F38A32F8FE98DFA8D76
:103610008E179F0709F05BCF9091210180912201C5
:10362000981306C0F101118A128A138A148A0BC0FA
:103630002FEE3FEF4FE75FE3C701B6010E94D1369F
:10364000181634F4F101118E128E138E148E5BC095
:103650002FEE3FEF4FE75FEBC701B6010E94D13677
:10366000181644F03FEEC32EDD24DA943FE7E32E34
:103670003FEBF32EA701960160E070E080E89FE346
:103680000E94F43320E030E040E05FE30E940C371A
:103690000E9499376B017C012091B5063091B606E6
:1036A0004091B7065091B806F10161A172A183A1C2
:1036B00094A10E940C37A70196010E940C374B0180
:1036C0005C01A701960160E070E080E89FE30E9442
:1036D000F4339B01AC01C501B4010E94D5346B01E8
:1036E0007C0120E030E0A9010E94CE3487FF04C0B5
:1036F000C12CD12CE12CF12CA601B701F101418F95
:10370000528F638F748F212F302F4B8D5C8D612FE3
:10371000702F8B8D9C8D0E940C37162F072FF82E43
:10372000E92E862F902FAF2DBE2DF101858F968F1C
:10373000A78FB0A3A18CB28CC38CD48C60901B01DA
:1037400070901C0180901D0190901E019301A401B6
:10375000612F702F8F2D9E2D0E94CE3487FD0BC0C0
:103760009301A401B501C6010E94CE3487FD11C0AA
:10377000530164010EC0212F302F4F2D5E2DB50156
:10378000C6010E94CE3487FD04C0A12EB02ECF2CDE
:10379000DE2CC501D601F101858B968BA78BB08FEE
:1037A0008CE0FE013196AFE0B1E001900D928A9578
:1037B000E1F7812F902FAF2DBE2D80931B019093A9
:1037C0001C01A0931D01B0931E018CE0FE013D96EB
:1037D000A3E0B1E001900D928A95E1F7809120017C
:1037E000809321018F5F823109F480E08093200172
:1037F000AD960FB6F894DEBF0FBECDBFDF91CF916F
:103800001F910F91FF90EF90DF90CF90BF90AF90FE
:103810009F908F907F906F905F904F903F902F90F0
:103820000C94C017AD960FB6F894DEBF0FBECDBF97
:10383000DF91CF911F910F91FF90EF90DF90CF908C
:10384000BF90AF909F908F907F906F905F904F90C0
:103850003F902F9008958091A5059091A605A09185
:10386000A705B091A8058093030190930401A0934C
:103870000501B09306018091A9059091AA05A09138
:10388000AB05B091AC058093070190930801A0931C
:103890000901B0930A018091AD059091AE05A09108
:1038A000AF05B091B00580930B0190930C01A093EC
:1038B0000D01B0930E010895809121019091220194
:1038C000891708F48E5E891B08950E94702B8091E1
:1038D000220180931F010C94C017CF93DF93EC015A
:1038E0008991882319F00E945C24FACFDF91CF914F
:1038F0000895CF93DF93FC018491EF0121968823F3
:1039000021F00E945C24FE01F7CFDF91CF91089552
:10391000EF92FF920F931F93CF93DF931F92CDB738
:10392000DEB7262FEDB6FEB66DB77EB7641B710904
:103930000FB6F8947EBF0FBE6DBF0DB71EB70F5FF9
:103940001F4F302FF8019E2F931B941728F4622FDE
:103950000E94F9379193F7CF442361F0F801E40F07
:10396000F11D31978081805D49830E945C244981EB
:103970004150F2CF0FB6F894FEBE0FBEEDBE0F90D1
:10398000DF91CF911F910F91FF90EF90089548E044
:1039900062E00C94881C8A3020F0843620F442E0E7
:1039A00003C041E001C043E06AE00C94881C8F92A0
:1039B0009F92AF92BF92CF92DF92EF92FF920F93BE
:1039C0001F93CF93DF93CDB7DEB72A970FB6F89446
:1039D000DEBF0FBECDBF6B017C01142F20E030E0B5
:1039E000A9010E94CE3487FF07C08DE20E945C24AB
:1039F000F7FAF094F7F8F094012F023060F020E02D
:103A000030E048EC52E4C701B6010E940C376B016C
:103A10007C010250F2CF10FF0AC020E030E040E20B
:103A200051E4C701B6010E940C376B017C0120E014
:103A300030E040E05FE3C701B6010E94F5330E9429
:103A40003D35E1E0F0E0EC0FFD1FE10FF11D2EE24E
:103A50002083D12C5AE0852E912CA12CB12C6115FC
:103A6000710581059105A9F0D11201C0D394EE240E
:103A7000E394F12CEC0EFD1EED0CF11CA50194015C
:103A80000E940538605DF7016083B901CA01D394D3
:103A9000E6CF80E3D11648F4E1E0F0E0EC0FFD1F43
:103AA000ED0DF11D8083D394F5CF8D2DD1120BC078
:103AB000D394D3948F5FE1E0F0E0EC0FFD1FE80FAB
:103AC000F11D80E38083DD2041F0FE01ED0DF11D4D
:103AD00080810E945C24DA94F6CF2A960FB6F8947F
:103AE000DEBF0FBECDBFDF91CF911F910F91FF9031
:103AF000EF90DF90CF90BF90AF909F908F90089500
:103B00002091BD0620FF08C02BE832E441E25DE3CE
:103B10000E940C3744E001C043E00C94D71C209174
:103B2000BD0620FF08C02BE832E441E25DE30E94BD
:103B30000C3741E001C040E00C94D71C43E00C94EA
:103B4000D71C3D98459A08951092BF059091BD06E7
:103B500097FD03C090E29093BF05882331F08091D8
:103B6000BF0590E289278093BF05089586B18072D2
:103B70009091BF0589270895809102018130A1F4B9
:103B80000E94B61D882381F0109202018CE0E5EAC4
:103B9000F5E0A1EBB5E001900D928A95E1F78091F7
:103BA00001018064809301010895EF92FF920F93C9
:103BB0001F93CF93DF93D1E008E080E2F82E10E16D
:103BC00090E4E92EC0910001CC2389F1D093A305A4
:103BD000C1FF02C081E00FC0C2FF02C082E00BC083
:103BE000C3FF02C083E007C0C4FF02C084E003C07B
:103BF000C5FF03C085E00E94E11FC0FD08C08FB76C
:103C0000F89490910001109200018FBF10C081E0E4
:103C10000E940B209FB7F894809101018F7E8093C2
:103C200001019FBF8091010184FFFCCFE8CFC091CB
:103C30000101CC2309F4BCC0C4FF04C081E080931F
:103C4000A205CEC0C0FF0AC00E943E239FB7F894D1
:103C5000809101018E7F809301019FBF8C2F887618
:103C600009F43CC08091A305882349F0982F9C77E4
:103C700069F1883021F40E94702BD093A4058091C3
:103C8000A305811103C092E09093A405C6FF09C06B
:103C9000883011F4E092A3058091A4058860809398
:103CA000A405C3FF05C08091A30585FF1093A3055C
:103CB000C5FF0CC086E00E940B208091A40581FD09
:103CC000C46084608093A405F092A3059FB7F89424
:103CD000809101018779809301019FBFC1FF48C096
:103CE0008C2F8876E9F58091A305882331F08075C3
:103CF000B9F18091A40581FF33C08091A40582FFB2
:103D00001CC080913305882371F040913405509197
:103D1000350560913605709137050E94F12780EADC
:103D20009FE00E948F1780913205882331F00E9416
:103D3000430488EE93E00E948F170E940019892B9C
:103D400059F08091A40583FD07C00093A3050E944C
:103D5000922B0E946C2802C01092A3051092A40519
:103D60009FB7F894809101018D7F809301019FBFDF
:103D7000C2FF1EC08091A305807371F08091A405DD
:103D800082FF04C00E94E7270E943E048091A405A0
:103D900082608093A40504C01092A4051092A3052C
:103DA0009FB7F894809101018B7F809301019FBFA1
:103DB0008091A3058C7711F00E94922B8091A3052E
:103DC000803251F48091A40581FF06C00E94273201
:103DD000811102C01093A3058091A4058111F2CE38
:103DE000DF91CF911F910F91FF90EF9008959FB7B2
:103DF000F894809101018260809301019FBF089532
:103E0000CF93DF930E943A208091A305813021F463
:103E100082E00E940B202FC00E942732882341F0AD
:103E2000809101018062809301010E94D51D02C032
:103E30001092A30585E094E00E9429321CC08D30C9
:103E400079F0DD2399F1893221F4D13009F04CC0A9
:103E5000D0E00E94A2248F3F09F448C08A3079F74D
:103E6000EC2FF0E0EB5FFB4F10820E94D51D80919C
:103E7000A205882311F0C0E0EBCF809105048111E9
:103E800003C00E94931FF7CF843229F485E094E0A9
:103E90000E944832F6CF8091A305813011F489E069
:103EA000F0CF85E094E00E942405EBCF813288F2C8
:103EB0008F3279F28832B1F08B33B1F0CF3428F001
:103EC0008BE00E94931FC0E0C4CF2C2F30E0CF5F67
:103ED0009FE9980FF901EB5FFB4F9A3108F480528C
:103EE0008083B7CFD1E0B5CFD2E0B3CF0E94F71E29
:103EF0000E94D51D8091A205882309F4AACFDF91E5
:103F0000CF9108950E94F71E0E94D51D8091A205B1
:103F1000811108C00E940019892BB1F78091A30577
:103F2000883091F30895CF93C82F811103C08EE498
:103F300098E044C086E498E00E94791C4C2F50E041
:103F4000FA013197E631F10580F5E75AFF4F0C94FD
:103F500027388EE298E002C08CE198E00E94791C3C
:103F60002BC08AE098E0FACF80E098E0F7CF8FEEA0
:103F700097E0F4CF80EE97E0F1CF8FEB97E0EECFB4
:103F800086EB97E0EBCF8BEA97E0E8CF88E997E004
:103F9000E5CF8AE897E0E2CF84E797E0DFCF80E6DD
:103FA00097E0DCCF8CE497E0D9CF8AE397E00E94DA
:103FB000791C8C2F0E94CB1C87E397E0CF910C9447
:103FC000791CCF93C82F8FE297E00E94791CC330F1
:103FD00091F03CF4C13061F0C230A1F489E197E086
:103FE0000FC0C43059F0C53069F48FEE96E008C0B8
:103FF00084E297E005C086E097E002C08BEF96E090
:104000000E94791C8CEE96E00E94791C84EF91E06E
:10401000CF910C948F17CF93C82F8AEE96E00E9411
:10402000791C8C2F90E0FC013197E830F105E8F421
:10403000E159FF4F0C94273888ED96E014C084ECCA
:1040400096E011C082EB96E00EC08AEA96E00BC0C3
:1040500081EA96E008C086E996E005C08EE896E021
:1040600002C08BE796E00E94791C87E796E0CF912B
:104070000C94791C86E596E00C94791C82E195E01D
:104080000C94791CFF920F931F93CF93DF938EE0D4
:1040900095E00E94791C8091B0060E94CB1C85EFB0
:1040A00094E00E94791C8091B3060E94CB1C87ED9E
:1040B00094E00E94791C8091B1060E94CB1C8EEB8B
:1040C00094E00E94791C8091B1060E94C71C87EB86
:1040D00094E00E94791C8091B2060E94CB1C8FE96B
:1040E00094E00E94791C8091B2060E94C71C88E966
:1040F00094E00E94791C8091BD0682FB882780F99C
:104100000E94CB1C87E794E00E94791C8091BD0639
:1041100086FB882780F90E94CB1C87E594E00E94EB
:10412000791C8091BD06881F8827881F0E94CB1CA0
:1041300087E394E00E94791C8091B4060E94CB1C16
:1041400081E294E00E94791C8091B4060E94C71C11
:1041500089E194E00E94791C6091B5067091B606E1
:104160008091B7069091B8060E949E1D89EF93E05A
:104170000E94791C6091B9067091BA068091BB06C5
:104180009091BC060E949E1D8EED93E00E94791CCA
:104190008091BD0681700E94CB1C81EC93E00E944F
:1041A000791C8091BD0685FB882780F90E94CB1C75
:1041B00086EA93E00E94791C8091BD0683FB8827E4
:1041C00080F90E94CB1C8BE893E00E94791C8091BF
:1041D000BD06829581700E94CB1C8FE693E00E9401
:1041E000791C8091BE060E94CB1C85E593E00E945D
:1041F000791C8091BE060E94C71C8DE493E00E944A
:10420000791C6091BF067091C0068091C1069091A3
:10421000C2060E949E1D80E393E00E94791C60917B
:10422000C3067091C4068091C5069091C6060E948F
:104230009E1D83E193E00E94791C8091C7060E9435
:10424000CB1C84EF92E00E94791C6091C9067091AA
:10425000CA068091CB069091CC060E949E1D8BEDE4
:1042600092E00E94791C84E6F82E10E0C0E8D6E0C7
:1042700000E089ED92E00E94791C802F8F0D0E9452
:10428000CB1C87ED92E00E94791C123071F0133044
:10429000B9F0113029F0688179818A819B8117C03A
:1042A0006C857D858E859F8512C020E030E041E6DB
:1042B00055E4688D798D8A8D9B8D0E94D53407C019
:1042C0008CA19DA1AEA1BFA1BC01CD0190580E94BF
:1042D0009E1D84ED92E00E94791C013029F002308D
:1042E00031F082ED92E005C080ED92E002C08EECEC
:1042F00092E00E94791C123051F0133059F01130C5
:1043000019F084EC92E008C082EB92E005C081EAEB
:1043100092E002C081E992E00E94791C8DE892E06F
:104320000E94791C0F5F2496033009F0A2CF8AE027
:10433000F80E1F5F8CE8F81299CFDF91CF911F9193
:104340000F91FF900895CF9387E892E00E94791C27
:10435000C0E06C2F81EB95E00E94C0330E94801D6D
:10436000C23021F085E892E00E94791CCF5FC33013
:1043700081F783E892E00E94791C8091BD050E943C
:10438000CB1C8FE792E0CF910C94791CEF92FF92B7
:104390000F931F93CF93DF93CDB7DEB72C970FB654
:1043A000F894DEBF0FBECDBFF12CBE016F5F7F4F13
:1043B0008F2D0E948126811104C087E00E94931FE7
:1043C00069C08CE792E00E94791C86E0F81631F013
:1043D000E7E0FE1208C086E792E002C089E792E0BB
:1043E0000E94791C04C086E38F0D0E94CB1C84E7D9
:1043F00092E00E94791C8E010F5F1F4FE12CF801A3
:1044000061917191819191918F010E94801DF2E0E3
:10441000EF1619F082E792E002C08EE692E00E9469
:10442000791CE39483E0E812EACFF394E8E0FE120B
:10443000BCCF88E692E00E94791C09E515E0F12CDA
:10444000F80161917191819191918F010E94801D7C
:10445000F2E0FF1619F086E692E002C082E692E0F2
:104460000E94791CF39483E0F812EACF8CE592E085
:104470000E94791C609165057091660580916705C1
:10448000909168050E94801D88E592E00E94791C49
:104490000E94A3212C960FB6F894DEBF0FBECDBFAD
:1044A000DF91CF911F910F91FF90EF90089586E5D6
:1044B00092E00E94791C80912A05823091F038F4B4
:1044C000882361F08130A9F480E592E00CC083304C
:1044D00069F0883071F486E492E005C083E592E0EB
:1044E00002C08DE492E00E94791C0CC08AE492E044
:1044F000FACF81E492E00E94791C80912A058250D3
:104500000E94CB1C8EE392E00E94791C80913005C2
:104510008A5C0E94CB1C80912E05813049F028F0E6
:10452000823051F48FE292E005C089E392E002C04C
:1045300084E392E00E94791C80912C05811103C0D4
:104540008AE292E002C085E292E00E94791C8091AA
:104550002D05811103C080E292E002C08BE192E060
:104560000E94791C80912B05813019F486E192E03C
:1045700002C081E192E00E94791C80913105813076
:1045800049F028F0823051F485E092E005C08DE0DA
:1045900092E002C089E092E00E94791C809133058C
:1045A000813031F040F0823051F48DEF91E005C060
:1045B00081E092E002C089EF91E00E94791C809135
:1045C0003205882329F0823039F481EF91E002C06E
:1045D00085EF91E00E94791C8EEE91E00E94791C9B
:1045E00080913C050E94CB1C8BEE91E00E94791CCF
:1045F000609138057091390580913A0590913B059D
:104600000E948F1D88EE91E00E94791C6091340514
:104610007091350580913605909137050E948F1D68
:1046200084EE91E00C94791C1F93CF93DF93182FA5
:10463000EB0181EE91E00E94791C812F0E94CB1C3E
:104640008FED91E00E94791CCE010E946D1C8CEDD3
:1046500091E0DF91CF911F910C94791CCF93DF9360
:10466000EC0188EC91E00E94791CCE010E946D1C47
:1046700084EC91E0DF91CF910C94791CBF92CF92A2
:10468000DF92EF92FF920F931F93CF93DF93CDB7FB
:10469000DEB768970FB6F894DEBF0FBECDBF8CE0D3
:1046A000E5EAF5E0DE011D9601900D928A95E1F7AD
:1046B0008091A3058430E9F040F48130E9F080F086
:1046C000823009F58FE991E01CC0803179F018F44F
:1046D000883049F018C0803291F0803421F013C046
:1046E0008EEB91E00EC089EB91E00BC083EB91E083
:1046F00008C08DEA91E005C086EA91E002C089E930
:1047000091E00E94791C8091B406837039F0BE015B
:10471000635F7F4FCE0101960E94DA338091B40629
:1047200080FD05C08091B40681FF6DC01FC082E985
:1047300091E00E94791C69817A818B819C810E9421
:10474000801D80E991E00E94791C6D817E818F81BE
:1047500098850E94801D80E991E00E94791C6985FE
:104760007A858B859C850E94801DDCCF89E891E04D
:104770000E94791C9DE4E92E95E0F92E8E010F5FD1
:104780001F4FB12C6801F701619171918191919155
:104790007F0120853185428553850E94F5339B0139
:1047A000AC01F80160817181828193810E94F433B0
:1047B000F8016083718382839383F2E0BF120FC09C
:1047C0002091650530916605409167055091680517
:1047D0000E94F433F80160837183828393830C5FBA
:1047E0001F4FF60160817181828193810E94801D3B
:1047F000F2E0BF1621F087E891E00E94791CB394A3
:1048000023E0B212BFCF8091B40682FF08C081E8D6
:1048100091E00E94791C0E945C1C0E94CB1C80913C
:10482000B40683FF08C08CE791E00E94791C0E94C7
:104830003D240E94CB1C8091B40684FF0AC086E709
:1048400091E00E94791C0E947B0F43E062E00E948D
:10485000881C82E791E00E94791C68960FB6F89454
:10486000DEBF0FBECDBFDF91CF911F910F91FF90A3
:10487000EF90DF90CF90BF90089590915704809172
:104880005804891708F48058891B0895E0ECF0E07B
:104890008081826080831092C50080E18093C40093
:1048A000E1ECF0E08081806180838081886080839A
:1048B0008081806880830895E091560491E09E0F86
:1048C000903409F490E020915504921305C0209192
:1048D000010124FFF8CF0895F0E0E054FA4F8083FF
:1048E000909356048091C10080628093C100089526
:1048F0001F920F920FB60F9211248F939F93EF93F5
:10490000FF9380915504E82FF0E0E054FA4F908136
:104910009093C6008F5F803409F480E08093550443
:1049200090915604891305C08091C1008F7D8093BA
:10493000C100FF91EF919F918F910F900FBE0F904B
:104940001F9018959091570480915804891761F031
:10495000E92FF0E0E050FA4F80819F5F903809F432
:1049600090E09093570408958FEF08951F920F924F
:104970000FB60F9211242F933F934F935F936F9332
:104980007F938F939F93AF93BF93EF93FF93809108
:10499000C6008F33A9F050F4883109F1813211F546
:1049A0009FB7F89480910101886015C0803471F040
:1049B0008E37C1F49FB7F8948091010182600BC0DB
:1049C0009FB7F89480910101816005C09FB7F8946A
:1049D000809101018062809301019FBF14C00E94F9
:1049E000B21611C0E091580491E09E0F903809F47E
:1049F00090E020915704921731F0F0E0E050FA4F28
:104A0000808390935804FF91EF91BF91AF919F9154
:104A10008F917F916F915F914F913F912F910F9067
:104A20000FBE0F901F9018958091580480935704E3
:104A3000089521E5829FC001112440E550E09D5F6B
:104A40000C94890440E550E0BC018EEA93E00C949C
:104A500089042DE0829FC00111244CE050E09E5F4C
:104A60000C94890469E080E090E00E9467044DE4C2
:104A700050E060E876E081E090E00C948904EF92E9
:104A8000FF920F931F93CF93DF93CDB7DEB72C9791
:104A90000FB6F894DEBF0FBECDBF182F80FFCDC07C
:104AA0008AE08093B00682E38093B3061092B10649
:104AB0001092B20683E08093B4068AE097EDA3E2F9
:104AC000BCE38093B5069093B606A093B706B09367
:104AD000B8068FE692E1A3E0BBE38093B90690931A
:104AE000BA06A093BB06B093BC061092BE0680E047
:104AF00090E0A8ECB1E48093BF069093C006A09329
:104B0000C106B093C20680E090E0A8E4B3E48093CD
:104B1000C3069093C406A093C506B093C6062CE2C4
:104B200031E03093C8062093C70640E050E060E4CF
:104B300070E44093C9065093CA066093CB06709305
:104B4000CC061092BD0646E555E565E872E4409353
:104B5000800650938106609382067093830640938B
:104B6000840650938506609386067093870680932B
:104B7000880690938906A0938A06B0938B0640E03E
:104B800050E066E174E440938C0650938D06609388
:104B90008E0670938F064093900650939106609313
:104BA00092067093930680E090E0A8E4B2E48093CC
:104BB000940690939506A0939606B093970640E0CE
:104BC00050E061EE76E44093980650939906609326
:104BD0009A0670939B0640939C0650939D066093A3
:104BE0009E0670939F0680E090EAACE0B7E4809365
:104BF000A0069093A106A093A206B093A30640E05E
:104C000050E068E473EC4093A4065093A5066093CB
:104C1000A6067093A7064093A8065093A906609332
:104C2000AA067093AB064093AC065093AD06609312
:104C3000AE067093AF060E94322511FF10C0CE0160
:104C400001967C018CE0F70111928A95E9F700E06A
:104C5000B701802F0E9429250F5F0830C9F712FF86
:104C60000AC060E080E093E00E94670460E081E5B4
:104C700093E00E94670413FF05C060E08EEA93E0B2
:104C80000E9467042C960FB6F894DEBF0FBECDBF0E
:104C9000DF91CF911F910F91FF90EF9008951F9397
:104CA000CF93DF93182FEB0181E5189FB0011124FA
:104CB0007D5F40E550E0CE010E94C704892B39F4A6
:104CC0001882BE01812F0E94192580E001C081E079
:104CD000DF91CF911F910895CF93DF93EC0140E5D1
:104CE00050E06EEA73E00E94C704892B31F4188209
:104CF000CE010E94222580E001C081E0DF91CF91AA
:104D000008951F93CF93DF93182FEB018DE0189F29
:104D1000B00111247E5F4CE050E0CE010E94C70438
:104D2000892B59F48CE0FE0111928A95E9F7BE01B6
:104D3000812F0E94292580E001C081E0DF91CF9181
:104D40001F91089580E090E00E945F04893059F43B
:104D50004DE450E061E070E080E896E00E94C70416
:104D600021E0892B09F420E0822F0895CF92DF9271
:104D7000EF92FF92CF93DF93C82F6A017B0120E06F
:104D800030E0A901C701B6010E94CE3487FDE6C01C
:104D9000C43608F445C02CE92C0F80E02330B8F568
:104DA00030E0823079F0F901EE0FFF1FEE0FFF1FA8
:104DB000833011F1813019F0E058F94F23C0E457E6
:104DC000F94F20C0E901CC0FDD1FCC0FDD1FC85605
:104DD000D94F20E030E040E752E4C701B6010E941D
:104DE0000C3720E030E040E752E40E940C37688343
:104DF00079838A839B83AEC0EC55F94FF7FAF09420
:104E0000F7F8F094C082D182E282F382A3C08F5F70
:104E10002A3008F4A5C0843009F4A2C02A50BECFBD
:104E2000C701B6010E94DA370E9442358C2F90E00C
:104E30008C31910508F094C0FC01E958FF4F0C94A7
:104E40002738633008F48EC06093B00683C0609347
:104E5000B30680C06093B10602C06093B2060E94A0
:104E6000E62A78C08091BD06662311F0846007C0F1
:104E70008B7F05C08091BD06662321F080648093FE
:104E8000BD0668C08F7BFBCF8091BD06662311F005
:104E90008068F5CF8F77F3CF6093B4065BC0C09284
:104EA000B506D092B606E092B706F092B80652C0A8
:104EB000C092B906D092BA06E092BB06F092BC0648
:104EC00049C08091BD06662311F08160D8CF8E7FE6
:104ED000D6CF8091BD06662321F084FF45C0806255
:104EE000CECF8F7DCCCF8091BD06662311F0886038
:104EF00001C0877F8093BD060E94640F2BC0809104
:104F0000BD06662311F08061BACF8F7CB8CF609365
:104F1000BE0620C0C092BF06D092C006E092C10675
:104F2000F092C20617C0C092C306D092C406E092A7
:104F3000C506F092C6060EC070E07093C806609376
:104F4000C70608C0C092C906D092CA06E092CB0636
:104F5000F092CC060E94322580E007C084E005C0B4
:104F600083E003C086E001C08AE0DF91CF91FF902B
:104F7000EF90DF90CF9008950E94A226811108C083
:104F800087E00E94931F8FEF0E943F250C944220E0
:104F90000895882321F0813021F488E0089584E089
:104FA000089580E10895882321F0813021F480E480
:104FB000089580E2089580E80895882321F08130E3
:104FC00021F484E0089582E0089580E10895E0EB03
:104FD000F0E080818F7780830895239A259A0C943E
:104FE000E727CF92DF92EF92FF926A017B01811156
:104FF00006C0FF90EF90DF90CF900C94E7278130B0
:1050000011F42D9801C02D9A83E88093B00080910F
:10501000B100887F82608093B10020E030E0A90178
:10502000C701B6010E94CE3487FD12C020E030E8EF
:105030004BE356E4C701B6010E94D13618165CF462
:10504000C12C80E8D82E8BE3E82E86E4F82E03C02E
:10505000C12CD12C76012BE734E14EEA5CE3C70189
:10506000B6010E940C3720E030E040E05FE30E9490
:10507000F5330E94AB350E9442356093B300FF9038
:10508000EF90DF90CF900895CF93DF9300D000D0C2
:105090001F92CDB7DEB79091A3059230A9F04A8355
:1050A0005B836C837D8389830E94821F4A815B813D
:1050B0006C817D8189810F900F900F900F900F90E0
:1050C000DF91CF910C94F1270F900F900F900F90DC
:1050D0000F90DF91CF9108958091BD0682FF02C0AD
:1050E000289A01C028988091A3058C70A1F0809126
:1050F000890480939D0480918A0480939C0480910C
:10510000B006880F8450819580939B0480916F0036
:10511000826080936F00089580916F008D7F8093EF
:105120006F0080918100887F816080938100109260
:1051300088048091B3068F3F21F490910001992358
:1051400049F09091A305943029F090E00E948F17C8
:1051500081E001C080E09091BD0692FF02C091E025
:105160008927882311F0289A0895289808951F9276
:105170000F920FB60F9211242F933F934F935F938B
:105180006F937F938F939F93AF93BF93CF93DF934F
:10519000EF93FF93809188048111EFC19BB18091BF
:1051A0009D04807E9F71892B8BB98BB1837E9091FA
:1051B0009C04892B8BB980919B0486BD82E085BDC0
:1051C00081E08093880478948091AF049091B0043A
:1051D000892B09F0A4C080918D0490918C049817BC
:1051E00009F492C0E0918D0486E0E89FF00111245B
:1051F000EF54FB4FF093B004E093AF0483819481AC
:105200009093890080938800808191819093AB0472
:105210008093AA04A2818091AC048A1771F1A093B3
:10522000AC0481E1A89FD0011124AB52BB4FB093D5
:10523000AE04A093AD041D968D919D910D90BC91EF
:10524000A02DB695A79597958795809396049093F2
:105250009704A0939804B093990480939204909338
:105260009304A0939404B093950480938E04909338
:105270008F04A0939004B0939104C091AD04D09199
:10528000AE04809189049881892780939D042581AB
:1052900089819A81AB81BC81022E04C0B695A79505
:1052A000979587950A94D2F780939E0490939F04D4
:1052B000A093A004B093A1048D819E81AF81B88595
:1052C000022E04C0B695A795979587950A94D2F7B4
:1052D0008093A2049093A304A093A404B093A50484
:1052E00089859A85AB85BC8504C0B695A7959795A9
:1052F00087952A95D2F78093A6049093A704A0934C
:10530000A804B093A9040BC00E948C289FB7F894FE
:10531000809101018460809301019FBF2EC10E9492
:10532000BC1D10929C0480919E0490919F04A091BA
:10533000A004B091A10440918E0450918F0460911B
:10534000900470919104840F951FA61FB71F80933E
:105350008E0490938F04A0939004B0939104E091F5
:10536000AD04F091AE044585568567857089481770
:1053700059076A077B0768F524E020939C0445855C
:10538000568567857089841B950BA60BB70B809398
:105390008E0490938F04A0939004B0939104208185
:1053A0008091A5059091A605A091A705B091A805AB
:1053B00025FF04C00197A109B10903C00196A11DF1
:1053C000B11D8093A5059093A605A093A705B09362
:1053D000A8058091A2049091A304A091A404B09187
:1053E000A5044091920450919304609194047091AB
:1053F0009504840F951FA61FB71F80939204909366
:105400009304A0939404B0939504458556856785CD
:105410007089481759076A077B0778F520919C0423
:10542000286020939C044585568567857089841B78
:10543000950BA60BB70B8093920490939304A093C3
:105440009404B093950420818091A9059091AA05B8
:10545000A091AB05B091AC0526FF04C00197A1094E
:10546000B10903C00196A11DB11D8093A9059093B8
:10547000AA05A093AB05B093AC058091A6049091CA
:10548000A704A091A804B091A9044091960450915A
:1054900097046091980470919904840F951FA61F3A
:1054A000B71F8093960490939704A0939804B093A9
:1054B00099044585568567857089481759076A0795
:1054C0007B0778F520919C04206120939C044585FE
:1054D000568567857089841B950BA60BB70B809347
:1054E000960490939704A0939804B0939904208114
:1054F0008091AD059091AE05A091AF05B091B0053A
:1055000027FF04C00197A109B10903C00196A11D9D
:10551000B11D8093AD059093AE05A093AF05B093F8
:10552000B0058091A305843039F48091BE05909137
:105530009C04892380939C048091AA049091AB04DD
:1055400001979093AB048093AA04892B69F410927D
:10555000B0041092AF0480918D048F5F80938D040E
:10556000863011F410928D0480918A0490919C04ED
:10557000892780939C0410928804FF91EF91DF911A
:10558000CF91BF91AF919F918F917F916F915F91DB
:105590004F913F912F910F900FBE0F901F90189534
:1055A0001F920F920FB60F9211248F939F939BB16E
:1055B00080918A048C71937E892B8BB915BC9F9145
:1055C0008F910F900FBE0F901F901895FF920F9321
:1055D0001F93CF93DF9310928A0410928904C0E046
:1055E000D0E00C2F1C2F2091B10630E08C2F0C2E18
:1055F00002C0359527950A94E2F720FF07C0F09086
:105600008A040E94C9278F2980938A042091B206B8
:1056100030E002C0359527951A95E2F720FF08C0C3
:1056200010918904802F0E94D327812B80938904B5
:105630002196C330D105A9F6DF91CF911F910F912B
:10564000FF9008950E948C288BE2E9E5F4E0DF01E9
:105650001D928A95E9F783E2EEE8F4E0DF011D92FE
:105660008A95E9F7109287041092860410928D04AF
:1056700010928C0481E080938B04109288040E9425
:10568000E62A8BB1837E90918A04892B8BB98BB1EA
:105690008F7190918904892B8BB908958AB18C619F
:1056A0008AB9209A8AB1806E8AB9E1E8F0E08081F7
:1056B0008F7E8083808188608083E0E8F0E0808155
:1056C0008C7F808380818F708083EEE6F0E0808124
:1056D000887F808314BC15BC80818160808308959D
:1056E000CF93DF93C0918604D09187042097B9F0BF
:1056F00081E080935A0460917004709171048091EC
:105700007204909173049B01AC010E940C37698B69
:105710007A8B8B8B9C8B1092870410928604DF917E
:10572000CF9108952F923F924F925F926F927F9206
:105730008F929F92AF92BF92CF92DF92EF92FF92A1
:105740000F931F93CF93DF93CDB7DEB7E5970FB6D7
:10575000F894DEBF0FBECDBF8091A305807709F41A
:105760000AC220E030E0A9016091700470917104D8
:1057700080917204909173040E94CE348111FBC118
:1057800003C68091860490918704892B09F4FAC19D
:1057900080918C04F6E0F89FF0011124EF54FB4F48
:1057A000FE83ED8380915904828320918604309199
:1057B00087043E872D87D9019596BC91BCA7F90136
:1057C000F6A1FDA7D9019796BC91BEA7F901F0A556
:1057D000FFA72091630430916404409165045091C7
:1057E00066046CA57DA58B2F9F2F0E94F43368A7BC
:1057F00079A78AA79BA720E030E0A9010E94CE34B8
:1058000087FF04C018A619A61AA61BA620917C041F
:10581000288F30917D04398F40917E044A8F5091BA
:105820007F045B8F809174048C8F909175049D8FA1
:10583000A0917604AE8FB0917704BF8FE091800481
:10584000E8A3F0918104F9A3209182042AA3309166
:1058500083043BA340916C044CA350916D045DA361
:1058600080916E048EA390916F049FA32091780481
:105870003091790440917A0450917B0428AB39AB84
:105880004AAB5BAB30917004398340917104498716
:10589000209072043090730450916B045F878CA544
:1058A0008C8B9DA59D8BAEA5AE8BBFA5BF8B3EE31C
:1058B000C32E33ECD32E3EE2E32E39E3F32E188AC7
:1058C000198A1A8A1B8A26013701EF85E111B4C3B0
:1058D000AD85BE8591962D913D914D915C919497AA
:1058E000C701B6010E940C374B015C0120E030E09B
:1058F00040E05FE30E940C379B01AC016981798530
:10590000C1010E94F5339B01AC01C701B6010E94A1
:105910000C379B01AC016C897D898E899F890E941F
:10592000F4338B018DAB9CAB288D398D4A8D5B8D0B
:105930000E94CE3487FF86C3288D398D4A8D5B8DBA
:105940006CA57DA58EA59FA50E94F4339B01AC019B
:105950000E94F5336B017C012C8D3D8D4E8D5F8D4A
:1059600069817985C1010E94F5339B01AC01C701B2
:10597000B6010E94D5346B017C0128A139A14AA14E
:105980005BA1688D798D8A8D9B8D0E94CE34882392
:1059900009F455C3B1E0BF87FC8DF9832D8D2987AC
:1059A0002E8C3F8C088D198D3A8D3DAB4B8D4CABB9
:1059B000A7019601688979898A899B890E94F533B4
:1059C000688B798B8A8B9B8BA30192010E94CE34CA
:1059D00087FDF2C328A539A54AA55BA5B8018DA905
:1059E0009CA90E94D13618160CF4DCC389819985D4
:1059F000D1018093700490937104A0937204B093CA
:105A00007304FF85F0936B0440905F045090600432
:105A1000609061047090620498014DA95CA9C30173
:105A2000B2010E940C3769837A838B839C830E9426
:105A3000BB346B017C0160915B0470915C048091CC
:105A40005D0490915E040E94BB344B015C01A70190
:105A500096010E94F4330E94423569877A878B87CA
:105A60009C87E985FA85AD81BE81ED93FC933097E3
:105A700009F4CDC320916704309168044091690412
:105A800050916A04688979898A899B890E94F533D3
:105A90002B013C0129813A814B815C81C501B40114
:105AA0000E94F4339B01AC01C301B2010E94D534C2
:105AB0004B015C0129813A814B815C81C701B601B0
:105AC0000E94F433A50194010E940C37609367048F
:105AD000709368048093690490936A0420EC31EE1B
